{"abi":[{"type":"constructor","inputs":[{"name":"tokenAddress","type":"address[]","internalType":"address[]"},{"name":"priceFeedAddresses","type":"address[]","internalType":"address[]"},{"name":"dscAddress","type":"address","internalType":"address"}],"stateMutability":"nonpayable"},{"type":"function","name":"burnDsc","inputs":[],"outputs":[],"stateMutability":"nonpayable"},{"type":"function","name":"depositCollateral","inputs":[{"name":"tokenCollateralAddress","type":"address","internalType":"address"},{"name":"amountCollateral","type":"uint256","internalType":"uint256"}],"outputs":[],"stateMutability":"nonpayable"},{"type":"function","name":"depositCollateralAndMintDsc","inputs":[],"outputs":[],"stateMutability":"nonpayable"},{"type":"function","name":"getAccountCollateralValue","inputs":[{"name":"user","type":"address","internalType":"address"}],"outputs":[{"name":"totalCollateralValueInUsd","type":"uint256","internalType":"uint256"}],"stateMutability":"view"},{"type":"function","name":"getHealthFactor","inputs":[],"outputs":[],"stateMutability":"view"},{"type":"function","name":"getUsdValue","inputs":[{"name":"token","type":"address","internalType":"address"},{"name":"amount","type":"uint256","internalType":"uint256"}],"outputs":[{"name":"","type":"uint256","internalType":"uint256"}],"stateMutability":"view"},{"type":"function","name":"liquidate","inputs":[],"outputs":[],"stateMutability":"nonpayable"},{"type":"function","name":"mintDsc","inputs":[{"name":"amountOfDscToMint","type":"uint256","internalType":"uint256"}],"outputs":[],"stateMutability":"nonpayable"},{"type":"function","name":"reedemCollateral","inputs":[],"outputs":[],"stateMutability":"nonpayable"},{"type":"function","name":"reedemCollateralForDsc","inputs":[],"outputs":[],"stateMutability":"nonpayable"},{"type":"event","name":"CollateralDeposited","inputs":[{"name":"user","type":"address","indexed":true,"internalType":"address"},{"name":"token","type":"address","indexed":true,"internalType":"address"},{"name":"amount","type":"uint256","indexed":false,"internalType":"uint256"}],"anonymous":false},{"type":"error","name":"DSCEngine__BreaksHealthFactor","inputs":[{"name":"userHealthfactor","type":"uint256","internalType":"uint256"}]},{"type":"error","name":"DSCEngine__MintFailed","inputs":[]},{"type":"error","name":"DSCEngine__NeedsMoreThanZero","inputs":[]},{"type":"error","name":"DSCEngine__TokenAddressAndPriceFeedAddressMustBeSameLength","inputs":[]},{"type":"error","name":"DSCEngine__TokenNotAllowed","inputs":[]},{"type":"error","name":"DSCEngine__TransferFailed","inputs":[]},{"type":"error","name":"ReentrancyGuardReentrantCall","inputs":[]}],"bytecode":{"object":"0x60a060405234801561000f575f5ffd5b50604051611201380380611201833981810160405281019061003191906103af565b60015f819055508151835114610073576040517ff7fa022b00000000000000000000000000000000000000000000000000000000815260040160405180910390fd5b5f5f90505b83518110156101b75782818151811061009457610093610437565b5b602002602001015160015f8684815181106100b2576100b1610437565b5b602002602001015173ffffffffffffffffffffffffffffffffffffffff1673ffffffffffffffffffffffffffffffffffffffff1681526020019081526020015f205f6101000a81548173ffffffffffffffffffffffffffffffffffffffff021916908373ffffffffffffffffffffffffffffffffffffffff160217905550600484828151811061014557610144610437565b5b6020026020010151908060018154018082558091505060019003905f5260205f20015f9091909190916101000a81548173ffffffffffffffffffffffffffffffffffffffff021916908373ffffffffffffffffffffffffffffffffffffffff1602179055508080600101915050610078565b508073ffffffffffffffffffffffffffffffffffffffff1660808173ffffffffffffffffffffffffffffffffffffffff1681525050505050610464565b5f604051905090565b5f5ffd5b5f5ffd5b5f5ffd5b5f601f19601f8301169050919050565b7f4e487b71000000000000000000000000000000000000000000000000000000005f52604160045260245ffd5b61024f82610209565b810181811067ffffffffffffffff8211171561026e5761026d610219565b5b80604052505050565b5f6102806101f4565b905061028c8282610246565b919050565b5f67ffffffffffffffff8211156102ab576102aa610219565b5b602082029050602081019050919050565b5f5ffd5b5f73ffffffffffffffffffffffffffffffffffffffff82169050919050565b5f6102e9826102c0565b9050919050565b6102f9816102df565b8114610303575f5ffd5b50565b5f81519050610314816102f0565b92915050565b5f61032c61032784610291565b610277565b9050808382526020820190506020840283018581111561034f5761034e6102bc565b5b835b8181101561037857806103648882610306565b845260208401935050602081019050610351565b5050509392505050565b5f82601f83011261039657610395610205565b5b81516103a684826020860161031a565b91505092915050565b5f5f5f606084860312156103c6576103c56101fd565b5b5f84015167ffffffffffffffff8111156103e3576103e2610201565b5b6103ef86828701610382565b935050602084015167ffffffffffffffff8111156104105761040f610201565b5b61041c86828701610382565b925050604061042d86828701610306565b9150509250925092565b7f4e487b71000000000000000000000000000000000000000000000000000000005f52603260045260245ffd5b608051610d8561047c5f395f6106e20152610d855ff3fe608060405234801561000f575f5ffd5b506004361061009c575f3560e01c8063a5f352b711610064578063a5f352b71461010a578063c660d11214610114578063c9b7c32714610144578063da6b8cf414610160578063ffde1fba1461016a5761009c565b80631e2e15e4146100a0578063273d31e0146100aa57806328a07025146100b45780637d1a4450146100be578063a5d5db0c146100ee575b5f5ffd5b6100a8610174565b005b6100b2610176565b005b6100bc610178565b005b6100d860048036038101906100d3919061096d565b61017a565b6040516100e591906109b0565b60405180910390f35b610108600480360381019061010391906109f3565b610274565b005b610112610531565b005b61012e600480360381019061012991906109f3565b610533565b60405161013b91906109b0565b60405180910390f35b61015e60048036038101906101599190610a31565b610641565b005b6101686107c1565b005b6101726107c3565b005b565b565b565b5f5f5f90505b60048054905081101561026e575f600482815481106101a2576101a1610a5c565b5b905f5260205f20015f9054906101000a900473ffffffffffffffffffffffffffffffffffffffff1690505f60025f8673ffffffffffffffffffffffffffffffffffffffff1673ffffffffffffffffffffffffffffffffffffffff1681526020019081526020015f205f8373ffffffffffffffffffffffffffffffffffffffff1673ffffffffffffffffffffffffffffffffffffffff1681526020019081526020015f205490506102528282610533565b8461025d9190610ab6565b935050508080600101915050610180565b50919050565b805f81036102ae576040517fcb1d3f7d00000000000000000000000000000000000000000000000000000000815260040160405180910390fd5b825f73ffffffffffffffffffffffffffffffffffffffff1660015f8373ffffffffffffffffffffffffffffffffffffffff1673ffffffffffffffffffffffffffffffffffffffff1681526020019081526020015f205f9054906101000a900473ffffffffffffffffffffffffffffffffffffffff1673ffffffffffffffffffffffffffffffffffffffff1603610370576040517f03a1667100000000000000000000000000000000000000000000000000000000815260040160405180910390fd5b6103786107c5565b8260025f3373ffffffffffffffffffffffffffffffffffffffff1673ffffffffffffffffffffffffffffffffffffffff1681526020019081526020015f205f8673ffffffffffffffffffffffffffffffffffffffff1673ffffffffffffffffffffffffffffffffffffffff1681526020019081526020015f205f8282546103ff9190610ab6565b925050819055508373ffffffffffffffffffffffffffffffffffffffff163373ffffffffffffffffffffffffffffffffffffffff167ff1c0dd7e9b98bbff859029005ef89b127af049cd18df1a8d79f0b7e019911e568560405161046391906109b0565b60405180910390a35f8473ffffffffffffffffffffffffffffffffffffffff166323b872dd3330876040518463ffffffff1660e01b81526004016104a993929190610af8565b6020604051808303815f875af11580156104c5573d5f5f3e3d5ffd5b505050506040513d601f19601f820116820180604052508101906104e99190610b62565b905080610522576040517f4dc34d1700000000000000000000000000000000000000000000000000000000815260040160405180910390fd5b5061052b610809565b50505050565b565b5f5f60015f8573ffffffffffffffffffffffffffffffffffffffff1673ffffffffffffffffffffffffffffffffffffffff1681526020019081526020015f205f9054906101000a900473ffffffffffffffffffffffffffffffffffffffff1690505f8173ffffffffffffffffffffffffffffffffffffffff1663feaf968c6040518163ffffffff1660e01b815260040160a060405180830381865afa1580156105de573d5f5f3e3d5ffd5b505050506040513d601f19601f820116820180604052508101906106029190610c13565b505050915050670de0b6b3a7640000846402540be400836106239190610c8a565b61062d9190610c8a565b6106379190610cf8565b9250505092915050565b805f810361067b576040517fcb1d3f7d00000000000000000000000000000000000000000000000000000000815260040160405180910390fd5b6106836107c5565b8160035f3373ffffffffffffffffffffffffffffffffffffffff1673ffffffffffffffffffffffffffffffffffffffff1681526020019081526020015f205f8282546106cf9190610ab6565b925050819055506106df33610812565b5f7f000000000000000000000000000000000000000000000000000000000000000073ffffffffffffffffffffffffffffffffffffffff166340c10f1933856040518363ffffffff1660e01b815260040161073b929190610d28565b6020604051808303815f875af1158015610757573d5f5f3e3d5ffd5b505050506040513d601f19601f8201168201806040525081019061077b9190610b62565b9050806107b4576040517f30eb0fc900000000000000000000000000000000000000000000000000000000815260040160405180910390fd5b506107bd610809565b5050565b565b565b60025f5403610800576040517f3ee5aeb500000000000000000000000000000000000000000000000000000000815260040160405180910390fd5b60025f81905550565b60015f81905550565b5f61081c82610868565b9050600181101561086457806040517fe580cc6100000000000000000000000000000000000000000000000000000000815260040161085b91906109b0565b60405180910390fd5b5050565b5f5f5f610874846108bd565b915091505f60646032836108889190610c8a565b6108929190610cf8565b905082670de0b6b3a7640000826108a99190610c8a565b6108b39190610cf8565b9350505050919050565b5f5f60035f8473ffffffffffffffffffffffffffffffffffffffff1673ffffffffffffffffffffffffffffffffffffffff1681526020019081526020015f205491506109088361017a565b9050915091565b5f5ffd5b5f73ffffffffffffffffffffffffffffffffffffffff82169050919050565b5f61093c82610913565b9050919050565b61094c81610932565b8114610956575f5ffd5b50565b5f8135905061096781610943565b92915050565b5f602082840312156109825761098161090f565b5b5f61098f84828501610959565b91505092915050565b5f819050919050565b6109aa81610998565b82525050565b5f6020820190506109c35f8301846109a1565b92915050565b6109d281610998565b81146109dc575f5ffd5b50565b5f813590506109ed816109c9565b92915050565b5f5f60408385031215610a0957610a0861090f565b5b5f610a1685828601610959565b9250506020610a27858286016109df565b9150509250929050565b5f60208284031215610a4657610a4561090f565b5b5f610a53848285016109df565b91505092915050565b7f4e487b71000000000000000000000000000000000000000000000000000000005f52603260045260245ffd5b7f4e487b71000000000000000000000000000000000000000000000000000000005f52601160045260245ffd5b5f610ac082610998565b9150610acb83610998565b9250828201905080821115610ae357610ae2610a89565b5b92915050565b610af281610932565b82525050565b5f606082019050610b0b5f830186610ae9565b610b186020830185610ae9565b610b2560408301846109a1565b949350505050565b5f8115159050919050565b610b4181610b2d565b8114610b4b575f5ffd5b50565b5f81519050610b5c81610b38565b92915050565b5f60208284031215610b7757610b7661090f565b5b5f610b8484828501610b4e565b91505092915050565b5f69ffffffffffffffffffff82169050919050565b610bab81610b8d565b8114610bb5575f5ffd5b50565b5f81519050610bc681610ba2565b92915050565b5f819050919050565b610bde81610bcc565b8114610be8575f5ffd5b50565b5f81519050610bf981610bd5565b92915050565b5f81519050610c0d816109c9565b92915050565b5f5f5f5f5f60a08688031215610c2c57610c2b61090f565b5b5f610c3988828901610bb8565b9550506020610c4a88828901610beb565b9450506040610c5b88828901610bff565b9350506060610c6c88828901610bff565b9250506080610c7d88828901610bb8565b9150509295509295909350565b5f610c9482610998565b9150610c9f83610998565b9250828202610cad81610998565b91508282048414831517610cc457610cc3610a89565b5b5092915050565b7f4e487b71000000000000000000000000000000000000000000000000000000005f52601260045260245ffd5b5f610d0282610998565b9150610d0d83610998565b925082610d1d57610d1c610ccb565b5b828204905092915050565b5f604082019050610d3b5f830185610ae9565b610d4860208301846109a1565b939250505056fea26469706673582212203ec8f4e82c9bab3bf9b9fc4df4791322768a48fa8dc66ca64fee0d191e4cdabf64736f6c634300081c0033","linkReferences":{}},"methodIdentifiers":{"burnDsc()":"ffde1fba","depositCollateral(address,uint256)":"a5d5db0c","depositCollateralAndMintDsc()":"1e2e15e4","getAccountCollateralValue(address)":"7d1a4450","getHealthFactor()":"a5f352b7","getUsdValue(address,uint256)":"c660d112","liquidate()":"28a07025","mintDsc(uint256)":"c9b7c327","reedemCollateral()":"273d31e0","reedemCollateralForDsc()":"da6b8cf4"},"id":32}