{"abi":[{"type":"constructor","inputs":[{"name":"tokenAddress","type":"address[]","internalType":"address[]"},{"name":"priceFeedAddresses","type":"address[]","internalType":"address[]"},{"name":"dscAddress","type":"address","internalType":"address"}],"stateMutability":"nonpayable"},{"type":"function","name":"burnDsc","inputs":[{"name":"amount","type":"uint256","internalType":"uint256"}],"outputs":[],"stateMutability":"nonpayable"},{"type":"function","name":"depositCollateral","inputs":[{"name":"tokenCollateralAddress","type":"address","internalType":"address"},{"name":"amountCollateral","type":"uint256","internalType":"uint256"}],"outputs":[],"stateMutability":"nonpayable"},{"type":"function","name":"depositCollateralAndMintDsc","inputs":[{"name":"tokenCollateralAddress","type":"address","internalType":"address"},{"name":"amountCollateral","type":"uint256","internalType":"uint256"},{"name":"amountDSCtoMint","type":"uint256","internalType":"uint256"}],"outputs":[],"stateMutability":"nonpayable"},{"type":"function","name":"getAccountCollateralValue","inputs":[{"name":"user","type":"address","internalType":"address"}],"outputs":[{"name":"totalCollateralValueInUsd","type":"uint256","internalType":"uint256"}],"stateMutability":"view"},{"type":"function","name":"getAccountInfo","inputs":[{"name":"user","type":"address","internalType":"address"}],"outputs":[{"name":"totalDscMinted","type":"uint256","internalType":"uint256"},{"name":"collateralValueInUsd","type":"uint256","internalType":"uint256"}],"stateMutability":"view"},{"type":"function","name":"getAdditionalFeedPrecision","inputs":[],"outputs":[{"name":"","type":"uint256","internalType":"uint256"}],"stateMutability":"pure"},{"type":"function","name":"getCollateralTokenPriceFeed","inputs":[{"name":"token","type":"address","internalType":"address"}],"outputs":[{"name":"","type":"address","internalType":"address"}],"stateMutability":"view"},{"type":"function","name":"getCollateralTokens","inputs":[],"outputs":[{"name":"","type":"address[]","internalType":"address[]"}],"stateMutability":"view"},{"type":"function","name":"getDsc","inputs":[],"outputs":[{"name":"","type":"address","internalType":"address"}],"stateMutability":"view"},{"type":"function","name":"getHealthFactor","inputs":[],"outputs":[],"stateMutability":"view"},{"type":"function","name":"getHealthFactor","inputs":[{"name":"user","type":"address","internalType":"address"}],"outputs":[{"name":"","type":"uint256","internalType":"uint256"}],"stateMutability":"view"},{"type":"function","name":"getLiquidationBonus","inputs":[],"outputs":[{"name":"","type":"uint256","internalType":"uint256"}],"stateMutability":"pure"},{"type":"function","name":"getLiquidationPrecision","inputs":[],"outputs":[{"name":"","type":"uint256","internalType":"uint256"}],"stateMutability":"pure"},{"type":"function","name":"getLiquidationThreshold","inputs":[],"outputs":[{"name":"","type":"uint256","internalType":"uint256"}],"stateMutability":"pure"},{"type":"function","name":"getMinHealthFactor","inputs":[],"outputs":[{"name":"","type":"uint256","internalType":"uint256"}],"stateMutability":"pure"},{"type":"function","name":"getPrecision","inputs":[],"outputs":[{"name":"","type":"uint256","internalType":"uint256"}],"stateMutability":"pure"},{"type":"function","name":"getTokenAmountFromUsd","inputs":[{"name":"token","type":"address","internalType":"address"},{"name":"usdAmountInWei","type":"uint256","internalType":"uint256"}],"outputs":[{"name":"","type":"uint256","internalType":"uint256"}],"stateMutability":"view"},{"type":"function","name":"getUsdValue","inputs":[{"name":"token","type":"address","internalType":"address"},{"name":"amount","type":"uint256","internalType":"uint256"}],"outputs":[{"name":"","type":"uint256","internalType":"uint256"}],"stateMutability":"view"},{"type":"function","name":"liquidate","inputs":[{"name":"collateral","type":"address","internalType":"address"},{"name":"user","type":"address","internalType":"address"},{"name":"debtToCover","type":"uint256","internalType":"uint256"}],"outputs":[],"stateMutability":"nonpayable"},{"type":"function","name":"mintDsc","inputs":[{"name":"amountOfDscToMint","type":"uint256","internalType":"uint256"}],"outputs":[],"stateMutability":"nonpayable"},{"type":"function","name":"reedemCollateral","inputs":[{"name":"tokenCollateralAddress","type":"address","internalType":"address"},{"name":"amountCollateral","type":"uint256","internalType":"uint256"}],"outputs":[],"stateMutability":"nonpayable"},{"type":"function","name":"reedemCollateralForDsc","inputs":[{"name":"tokenCollateralAddress","type":"address","internalType":"address"},{"name":"amountCollateral","type":"uint256","internalType":"uint256"},{"name":"amountDSCtoBurn","type":"uint256","internalType":"uint256"}],"outputs":[],"stateMutability":"nonpayable"},{"type":"event","name":"CollateralDeposited","inputs":[{"name":"user","type":"address","indexed":true,"internalType":"address"},{"name":"token","type":"address","indexed":true,"internalType":"address"},{"name":"amount","type":"uint256","indexed":true,"internalType":"uint256"}],"anonymous":false},{"type":"event","name":"CollateralRedeemed","inputs":[{"name":"redeemFrom","type":"address","indexed":true,"internalType":"address"},{"name":"redeemTo","type":"address","indexed":true,"internalType":"address"},{"name":"token","type":"address","indexed":false,"internalType":"address"},{"name":"amount","type":"uint256","indexed":false,"internalType":"uint256"}],"anonymous":false},{"type":"error","name":"DSCEngine__BreaksHealthFactor","inputs":[{"name":"userHealthfactor","type":"uint256","internalType":"uint256"}]},{"type":"error","name":"DSCEngine__HealthFactorNotImproved","inputs":[]},{"type":"error","name":"DSCEngine__HealthFactorOk","inputs":[]},{"type":"error","name":"DSCEngine__MintFailed","inputs":[]},{"type":"error","name":"DSCEngine__NeedsMoreThanZero","inputs":[]},{"type":"error","name":"DSCEngine__TokenAddressAndPriceFeedAddressMustBeSameLength","inputs":[]},{"type":"error","name":"DSCEngine__TokenNotAllowed","inputs":[]},{"type":"error","name":"DSCEngine__TransferFailed","inputs":[]},{"type":"error","name":"ReentrancyGuardReentrantCall","inputs":[]}],"bytecode":{"object":"0x60a060405234801561000f575f5ffd5b50604051611f9d380380611f9d833981810160405281019061003191906103af565b60015f819055508151835114610073576040517ff7fa022b00000000000000000000000000000000000000000000000000000000815260040160405180910390fd5b5f5f90505b83518110156101b75782818151811061009457610093610437565b5b602002602001015160015f8684815181106100b2576100b1610437565b5b602002602001015173ffffffffffffffffffffffffffffffffffffffff1673ffffffffffffffffffffffffffffffffffffffff1681526020019081526020015f205f6101000a81548173ffffffffffffffffffffffffffffffffffffffff021916908373ffffffffffffffffffffffffffffffffffffffff160217905550600484828151811061014557610144610437565b5b6020026020010151908060018154018082558091505060019003905f5260205f20015f9091909190916101000a81548173ffffffffffffffffffffffffffffffffffffffff021916908373ffffffffffffffffffffffffffffffffffffffff1602179055508080600101915050610078565b508073ffffffffffffffffffffffffffffffffffffffff1660808173ffffffffffffffffffffffffffffffffffffffff1681525050505050610464565b5f604051905090565b5f5ffd5b5f5ffd5b5f5ffd5b5f601f19601f8301169050919050565b7f4e487b71000000000000000000000000000000000000000000000000000000005f52604160045260245ffd5b61024f82610209565b810181811067ffffffffffffffff8211171561026e5761026d610219565b5b80604052505050565b5f6102806101f4565b905061028c8282610246565b919050565b5f67ffffffffffffffff8211156102ab576102aa610219565b5b602082029050602081019050919050565b5f5ffd5b5f73ffffffffffffffffffffffffffffffffffffffff82169050919050565b5f6102e9826102c0565b9050919050565b6102f9816102df565b8114610303575f5ffd5b50565b5f81519050610314816102f0565b92915050565b5f61032c61032784610291565b610277565b9050808382526020820190506020840283018581111561034f5761034e6102bc565b5b835b8181101561037857806103648882610306565b845260208401935050602081019050610351565b5050509392505050565b5f82601f83011261039657610395610205565b5b81516103a684826020860161031a565b91505092915050565b5f5f5f606084860312156103c6576103c56101fd565b5b5f84015167ffffffffffffffff8111156103e3576103e2610201565b5b6103ef86828701610382565b935050602084015167ffffffffffffffff8111156104105761040f610201565b5b61041c86828701610382565b925050604061042d86828701610306565b9150509250925092565b7f4e487b71000000000000000000000000000000000000000000000000000000005f52603260045260245ffd5b608051611b0c6104915f395f8181610e4001528181610f220152818161122601526112fc0152611b0c5ff3fe608060405234801561000f575f5ffd5b5060043610610140575f3560e01c80639670c0bc116100b6578063c660d1121161007a578063c660d11214610351578063c9b7c32714610381578063deb8e0181461039d578063e90db8a3146103bb578063f6876608146103d7578063fe6bcd7c146103f357610140565b80639670c0bc146102bf578063a5d5db0c146102dd578063a5f352b7146102f9578063afea2e4814610303578063b58eb63f1461033357610140565b806377b2bd811161010857806377b2bd81146101ea5780637b510fe8146102065780637d1a4450146102375780638c1ae6c8146102675780638df12407146102855780638f63d667146102a157610140565b80631c08adda1461014457806326c01303146101745780634ae9b8bc1461019057806359aa9e72146101ae5780636c8102c0146101cc575b5f5ffd5b61015e6004803603810190610159919061150a565b610423565b60405161016b9190611544565b60405180910390f35b61018e60048036038101906101899190611590565b610488565b005b61019861067e565b6040516101a591906115ef565b60405180910390f35b6101b6610686565b6040516101c391906115ef565b60405180910390f35b6101d461068e565b6040516101e191906115ef565b60405180910390f35b61020460048036038101906101ff9190611608565b610696565b005b610220600480360381019061021b919061150a565b6106ae565b60405161022e929190611658565b60405180910390f35b610251600480360381019061024c919061150a565b6106c2565b60405161025e91906115ef565b60405180910390f35b61026f6107bc565b60405161027c91906115ef565b60405180910390f35b61029f600480360381019061029a919061167f565b6107c4565b005b6102a9610828565b6040516102b691906115ef565b60405180910390f35b6102c7610834565b6040516102d491906115ef565b60405180910390f35b6102f760048036038101906102f2919061167f565b610843565b005b610301610af6565b005b61031d6004803603810190610318919061167f565b610af8565b60405161032a91906115ef565b60405180910390f35b61033b610c06565b6040516103489190611774565b60405180910390f35b61036b6004803603810190610366919061167f565b610c91565b60405161037891906115ef565b60405180910390f35b61039b60048036038101906103969190611794565b610d9f565b005b6103a5610f1f565b6040516103b29190611544565b60405180910390f35b6103d560048036038101906103d09190611608565b610f46565b005b6103f160048036038101906103ec9190611794565b610f5e565b005b61040d6004803603810190610408919061150a565b610fa7565b60405161041a91906115ef565b60405180910390f35b5f60015f8373ffffffffffffffffffffffffffffffffffffffff1673ffffffffffffffffffffffffffffffffffffffff1681526020019081526020015f205f9054906101000a900473ffffffffffffffffffffffffffffffffffffffff169050919050565b825f73ffffffffffffffffffffffffffffffffffffffff1660015f8373ffffffffffffffffffffffffffffffffffffffff1673ffffffffffffffffffffffffffffffffffffffff1681526020019081526020015f205f9054906101000a900473ffffffffffffffffffffffffffffffffffffffff1673ffffffffffffffffffffffffffffffffffffffff160361054a576040517f03a1667100000000000000000000000000000000000000000000000000000000815260040160405180910390fd5b815f8103610584576040517fcb1d3f7d00000000000000000000000000000000000000000000000000000000815260040160405180910390fd5b61058c610fb8565b5f61059685610ffc565b9050600181106105d2576040517f32c072f000000000000000000000000000000000000000000000000000000000815260040160405180910390fd5b5f6105dd8786610af8565b90505f6064600a836105ef91906117ec565b6105f9919061185a565b905061061288828461060b919061188a565b893361101f565b61061d8688336111d0565b5f61062788610ffc565b9050838111610662576040517f7c28362000000000000000000000000000000000000000000000000000000000815260040160405180910390fd5b61066b33611386565b505050506106776113dc565b5050505050565b5f6032905090565b5f600a905090565b5f6064905090565b61069f81610f5e565b6106a983836107c4565b505050565b5f5f6106b9836113e5565b91509150915091565b5f5f5f90505b6004805490508110156107b6575f600482815481106106ea576106e96118bd565b5b905f5260205f20015f9054906101000a900473ffffffffffffffffffffffffffffffffffffffff1690505f60025f8673ffffffffffffffffffffffffffffffffffffffff1673ffffffffffffffffffffffffffffffffffffffff1681526020019081526020015f205f8373ffffffffffffffffffffffffffffffffffffffff1673ffffffffffffffffffffffffffffffffffffffff1681526020019081526020015f2054905061079a8282610c91565b846107a5919061188a565b9350505080806001019150506106c8565b50919050565b5f6001905090565b805f81036107fe576040517fcb1d3f7d00000000000000000000000000000000000000000000000000000000815260040160405180910390fd5b610806610fb8565b6108128383333361101f565b61081b33611386565b6108236113dc565b505050565b5f6402540be400905090565b5f670de0b6b3a7640000905090565b805f810361087d576040517fcb1d3f7d00000000000000000000000000000000000000000000000000000000815260040160405180910390fd5b825f73ffffffffffffffffffffffffffffffffffffffff1660015f8373ffffffffffffffffffffffffffffffffffffffff1673ffffffffffffffffffffffffffffffffffffffff1681526020019081526020015f205f9054906101000a900473ffffffffffffffffffffffffffffffffffffffff1673ffffffffffffffffffffffffffffffffffffffff160361093f576040517f03a1667100000000000000000000000000000000000000000000000000000000815260040160405180910390fd5b610947610fb8565b8260025f3373ffffffffffffffffffffffffffffffffffffffff1673ffffffffffffffffffffffffffffffffffffffff1681526020019081526020015f205f8673ffffffffffffffffffffffffffffffffffffffff1673ffffffffffffffffffffffffffffffffffffffff1681526020019081526020015f205f8282546109ce919061188a565b92505081905550828473ffffffffffffffffffffffffffffffffffffffff163373ffffffffffffffffffffffffffffffffffffffff167ff1c0dd7e9b98bbff859029005ef89b127af049cd18df1a8d79f0b7e019911e5660405160405180910390a45f8473ffffffffffffffffffffffffffffffffffffffff166323b872dd3330876040518463ffffffff1660e01b8152600401610a6e939291906118ea565b6020604051808303815f875af1158015610a8a573d5f5f3e3d5ffd5b505050506040513d601f19601f82011682018060405250810190610aae9190611954565b905080610ae7576040517f4dc34d1700000000000000000000000000000000000000000000000000000000815260040160405180910390fd5b50610af06113dc565b50505050565b565b5f5f60015f8573ffffffffffffffffffffffffffffffffffffffff1673ffffffffffffffffffffffffffffffffffffffff1681526020019081526020015f205f9054906101000a900473ffffffffffffffffffffffffffffffffffffffff1690505f8173ffffffffffffffffffffffffffffffffffffffff1663feaf968c6040518163ffffffff1660e01b815260040160a060405180830381865afa158015610ba3573d5f5f3e3d5ffd5b505050506040513d601f19601f82011682018060405250810190610bc79190611a05565b5050509150506402540be40081610bde91906117ec565b670de0b6b3a764000085610bf291906117ec565b610bfc919061185a565b9250505092915050565b60606004805480602002602001604051908101604052809291908181526020018280548015610c8757602002820191905f5260205f20905b815f9054906101000a900473ffffffffffffffffffffffffffffffffffffffff1673ffffffffffffffffffffffffffffffffffffffff1681526020019060010190808311610c3e575b5050505050905090565b5f5f60015f8573ffffffffffffffffffffffffffffffffffffffff1673ffffffffffffffffffffffffffffffffffffffff1681526020019081526020015f205f9054906101000a900473ffffffffffffffffffffffffffffffffffffffff1690505f8173ffffffffffffffffffffffffffffffffffffffff1663feaf968c6040518163ffffffff1660e01b815260040160a060405180830381865afa158015610d3c573d5f5f3e3d5ffd5b505050506040513d601f19601f82011682018060405250810190610d609190611a05565b505050915050670de0b6b3a7640000846402540be40083610d8191906117ec565b610d8b91906117ec565b610d95919061185a565b9250505092915050565b805f8103610dd9576040517fcb1d3f7d00000000000000000000000000000000000000000000000000000000815260040160405180910390fd5b610de1610fb8565b8160035f3373ffffffffffffffffffffffffffffffffffffffff1673ffffffffffffffffffffffffffffffffffffffff1681526020019081526020015f205f828254610e2d919061188a565b92505081905550610e3d33611386565b5f7f000000000000000000000000000000000000000000000000000000000000000073ffffffffffffffffffffffffffffffffffffffff166340c10f1933856040518363ffffffff1660e01b8152600401610e99929190611a7c565b6020604051808303815f875af1158015610eb5573d5f5f3e3d5ffd5b505050506040513d601f19601f82011682018060405250810190610ed99190611954565b905080610f12576040517f30eb0fc900000000000000000000000000000000000000000000000000000000815260040160405180910390fd5b50610f1b6113dc565b5050565b5f7f0000000000000000000000000000000000000000000000000000000000000000905090565b610f508383610843565b610f5981610d9f565b505050565b805f8103610f98576040517fcb1d3f7d00000000000000000000000000000000000000000000000000000000815260040160405180910390fd5b610fa38233336111d0565b5050565b5f610fb182610ffc565b9050919050565b60025f5403610ff3576040517f3ee5aeb500000000000000000000000000000000000000000000000000000000815260040160405180910390fd5b60025f81905550565b5f5f5f611008846113e5565b915091506110168282611437565b92505050919050565b8260025f8473ffffffffffffffffffffffffffffffffffffffff1673ffffffffffffffffffffffffffffffffffffffff1681526020019081526020015f205f8673ffffffffffffffffffffffffffffffffffffffff1673ffffffffffffffffffffffffffffffffffffffff1681526020019081526020015f205f8282546110a69190611aa3565b925050819055508073ffffffffffffffffffffffffffffffffffffffff168273ffffffffffffffffffffffffffffffffffffffff167fb292db12b8dfa23b760ee5e3bd1d3be184cd8f0eeeacd27ce120d4de4e4721f6868660405161110c929190611a7c565b60405180910390a35f8473ffffffffffffffffffffffffffffffffffffffff1663a9059cbb83866040518363ffffffff1660e01b8152600401611150929190611a7c565b6020604051808303815f875af115801561116c573d5f5f3e3d5ffd5b505050506040513d601f19601f820116820180604052508101906111909190611954565b9050806111c9576040517f4dc34d1700000000000000000000000000000000000000000000000000000000815260040160405180910390fd5b5050505050565b8260035f8473ffffffffffffffffffffffffffffffffffffffff1673ffffffffffffffffffffffffffffffffffffffff1681526020019081526020015f205f82825461121c9190611aa3565b925050819055505f7f000000000000000000000000000000000000000000000000000000000000000073ffffffffffffffffffffffffffffffffffffffff166323b872dd8330876040518463ffffffff1660e01b8152600401611281939291906118ea565b6020604051808303815f875af115801561129d573d5f5f3e3d5ffd5b505050506040513d601f19601f820116820180604052508101906112c19190611954565b9050806112fa576040517f4dc34d1700000000000000000000000000000000000000000000000000000000815260040160405180910390fd5b7f000000000000000000000000000000000000000000000000000000000000000073ffffffffffffffffffffffffffffffffffffffff166342966c68856040518263ffffffff1660e01b815260040161135391906115ef565b5f604051808303815f87803b15801561136a575f5ffd5b505af115801561137c573d5f5f3e3d5ffd5b5050505050505050565b5f61139082610ffc565b905060018110156113d857806040517fe580cc610000000000000000000000000000000000000000000000000000000081526004016113cf91906115ef565b60405180910390fd5b5050565b60015f81905550565b5f5f60035f8473ffffffffffffffffffffffffffffffffffffffff1673ffffffffffffffffffffffffffffffffffffffff1681526020019081526020015f20549150611430836106c2565b9050915091565b5f5f8303611467577fffffffffffffffffffffffffffffffffffffffffffffffffffffffffffffffff90506114a6565b5f606460328461147791906117ec565b611481919061185a565b905083670de0b6b3a76400008261149891906117ec565b6114a2919061185a565b9150505b92915050565b5f5ffd5b5f73ffffffffffffffffffffffffffffffffffffffff82169050919050565b5f6114d9826114b0565b9050919050565b6114e9816114cf565b81146114f3575f5ffd5b50565b5f81359050611504816114e0565b92915050565b5f6020828403121561151f5761151e6114ac565b5b5f61152c848285016114f6565b91505092915050565b61153e816114cf565b82525050565b5f6020820190506115575f830184611535565b92915050565b5f819050919050565b61156f8161155d565b8114611579575f5ffd5b50565b5f8135905061158a81611566565b92915050565b5f5f5f606084860312156115a7576115a66114ac565b5b5f6115b4868287016114f6565b93505060206115c5868287016114f6565b92505060406115d68682870161157c565b9150509250925092565b6115e98161155d565b82525050565b5f6020820190506116025f8301846115e0565b92915050565b5f5f5f6060848603121561161f5761161e6114ac565b5b5f61162c868287016114f6565b935050602061163d8682870161157c565b925050604061164e8682870161157c565b9150509250925092565b5f60408201905061166b5f8301856115e0565b61167860208301846115e0565b9392505050565b5f5f60408385031215611695576116946114ac565b5b5f6116a2858286016114f6565b92505060206116b38582860161157c565b9150509250929050565b5f81519050919050565b5f82825260208201905092915050565b5f819050602082019050919050565b6116ef816114cf565b82525050565b5f61170083836116e6565b60208301905092915050565b5f602082019050919050565b5f611722826116bd565b61172c81856116c7565b9350611737836116d7565b805f5b8381101561176757815161174e88826116f5565b97506117598361170c565b92505060018101905061173a565b5085935050505092915050565b5f6020820190508181035f83015261178c8184611718565b905092915050565b5f602082840312156117a9576117a86114ac565b5b5f6117b68482850161157c565b91505092915050565b7f4e487b71000000000000000000000000000000000000000000000000000000005f52601160045260245ffd5b5f6117f68261155d565b91506118018361155d565b925082820261180f8161155d565b91508282048414831517611826576118256117bf565b5b5092915050565b7f4e487b71000000000000000000000000000000000000000000000000000000005f52601260045260245ffd5b5f6118648261155d565b915061186f8361155d565b92508261187f5761187e61182d565b5b828204905092915050565b5f6118948261155d565b915061189f8361155d565b92508282019050808211156118b7576118b66117bf565b5b92915050565b7f4e487b71000000000000000000000000000000000000000000000000000000005f52603260045260245ffd5b5f6060820190506118fd5f830186611535565b61190a6020830185611535565b61191760408301846115e0565b949350505050565b5f8115159050919050565b6119338161191f565b811461193d575f5ffd5b50565b5f8151905061194e8161192a565b92915050565b5f60208284031215611969576119686114ac565b5b5f61197684828501611940565b91505092915050565b5f69ffffffffffffffffffff82169050919050565b61199d8161197f565b81146119a7575f5ffd5b50565b5f815190506119b881611994565b92915050565b5f819050919050565b6119d0816119be565b81146119da575f5ffd5b50565b5f815190506119eb816119c7565b92915050565b5f815190506119ff81611566565b92915050565b5f5f5f5f5f60a08688031215611a1e57611a1d6114ac565b5b5f611a2b888289016119aa565b9550506020611a3c888289016119dd565b9450506040611a4d888289016119f1565b9350506060611a5e888289016119f1565b9250506080611a6f888289016119aa565b9150509295509295909350565b5f604082019050611a8f5f830185611535565b611a9c60208301846115e0565b9392505050565b5f611aad8261155d565b9150611ab88361155d565b9250828203905081811115611ad057611acf6117bf565b5b9291505056fea264697066735822122095bb285a6e215b3cdb6eb4df094507bc30a3c25ace7b8ecfa96ef05ffd41171a64736f6c634300081c0033","linkReferences":{}},"methodIdentifiers":{"burnDsc(uint256)":"f6876608","depositCollateral(address,uint256)":"a5d5db0c","depositCollateralAndMintDsc(address,uint256,uint256)":"e90db8a3","getAccountCollateralValue(address)":"7d1a4450","getAccountInfo(address)":"7b510fe8","getAdditionalFeedPrecision()":"8f63d667","getCollateralTokenPriceFeed(address)":"1c08adda","getCollateralTokens()":"b58eb63f","getDsc()":"deb8e018","getHealthFactor()":"a5f352b7","getHealthFactor(address)":"fe6bcd7c","getLiquidationBonus()":"59aa9e72","getLiquidationPrecision()":"6c8102c0","getLiquidationThreshold()":"4ae9b8bc","getMinHealthFactor()":"8c1ae6c8","getPrecision()":"9670c0bc","getTokenAmountFromUsd(address,uint256)":"afea2e48","getUsdValue(address,uint256)":"c660d112","liquidate(address,address,uint256)":"26c01303","mintDsc(uint256)":"c9b7c327","reedemCollateral(address,uint256)":"8df12407","reedemCollateralForDsc(address,uint256,uint256)":"77b2bd81"},"id":32}