{"abi":[{"type":"constructor","inputs":[{"name":"tokenAddress","type":"address[]","internalType":"address[]"},{"name":"priceFeedAddresses","type":"address[]","internalType":"address[]"},{"name":"dscAddress","type":"address","internalType":"address"}],"stateMutability":"nonpayable"},{"type":"function","name":"burnDsc","inputs":[{"name":"amount","type":"uint256","internalType":"uint256"}],"outputs":[],"stateMutability":"nonpayable"},{"type":"function","name":"depositCollateral","inputs":[{"name":"tokenCollateralAddress","type":"address","internalType":"address"},{"name":"amountCollateral","type":"uint256","internalType":"uint256"}],"outputs":[],"stateMutability":"nonpayable"},{"type":"function","name":"depositCollateralAndMintDsc","inputs":[{"name":"tokenCollateralAddress","type":"address","internalType":"address"},{"name":"amountCollateral","type":"uint256","internalType":"uint256"},{"name":"amountDSCtoMint","type":"uint256","internalType":"uint256"}],"outputs":[],"stateMutability":"nonpayable"},{"type":"function","name":"getAccountCollateralValue","inputs":[{"name":"user","type":"address","internalType":"address"}],"outputs":[{"name":"totalCollateralValueInUsd","type":"uint256","internalType":"uint256"}],"stateMutability":"view"},{"type":"function","name":"getAccountInfo","inputs":[{"name":"user","type":"address","internalType":"address"}],"outputs":[{"name":"totalDscMinted","type":"uint256","internalType":"uint256"},{"name":"collateralValueInUsd","type":"uint256","internalType":"uint256"}],"stateMutability":"view"},{"type":"function","name":"getAdditionalFeedPrecision","inputs":[],"outputs":[{"name":"","type":"uint256","internalType":"uint256"}],"stateMutability":"pure"},{"type":"function","name":"getCollateralBalanceOfUser","inputs":[{"name":"user","type":"address","internalType":"address"},{"name":"token","type":"address","internalType":"address"}],"outputs":[{"name":"","type":"uint256","internalType":"uint256"}],"stateMutability":"view"},{"type":"function","name":"getCollateralTokenPriceFeed","inputs":[{"name":"token","type":"address","internalType":"address"}],"outputs":[{"name":"","type":"address","internalType":"address"}],"stateMutability":"view"},{"type":"function","name":"getCollateralTokens","inputs":[],"outputs":[{"name":"","type":"address[]","internalType":"address[]"}],"stateMutability":"view"},{"type":"function","name":"getDsc","inputs":[],"outputs":[{"name":"","type":"address","internalType":"address"}],"stateMutability":"view"},{"type":"function","name":"getHealthFactor","inputs":[],"outputs":[],"stateMutability":"view"},{"type":"function","name":"getHealthFactor","inputs":[{"name":"user","type":"address","internalType":"address"}],"outputs":[{"name":"","type":"uint256","internalType":"uint256"}],"stateMutability":"view"},{"type":"function","name":"getLiquidationBonus","inputs":[],"outputs":[{"name":"","type":"uint256","internalType":"uint256"}],"stateMutability":"pure"},{"type":"function","name":"getLiquidationPrecision","inputs":[],"outputs":[{"name":"","type":"uint256","internalType":"uint256"}],"stateMutability":"pure"},{"type":"function","name":"getLiquidationThreshold","inputs":[],"outputs":[{"name":"","type":"uint256","internalType":"uint256"}],"stateMutability":"pure"},{"type":"function","name":"getMinHealthFactor","inputs":[],"outputs":[{"name":"","type":"uint256","internalType":"uint256"}],"stateMutability":"pure"},{"type":"function","name":"getPrecision","inputs":[],"outputs":[{"name":"","type":"uint256","internalType":"uint256"}],"stateMutability":"pure"},{"type":"function","name":"getTokenAmountFromUsd","inputs":[{"name":"token","type":"address","internalType":"address"},{"name":"usdAmountInWei","type":"uint256","internalType":"uint256"}],"outputs":[{"name":"","type":"uint256","internalType":"uint256"}],"stateMutability":"view"},{"type":"function","name":"getUsdValue","inputs":[{"name":"token","type":"address","internalType":"address"},{"name":"amount","type":"uint256","internalType":"uint256"}],"outputs":[{"name":"","type":"uint256","internalType":"uint256"}],"stateMutability":"view"},{"type":"function","name":"liquidate","inputs":[{"name":"collateral","type":"address","internalType":"address"},{"name":"user","type":"address","internalType":"address"},{"name":"debtToCover","type":"uint256","internalType":"uint256"}],"outputs":[],"stateMutability":"nonpayable"},{"type":"function","name":"mintDsc","inputs":[{"name":"amountOfDscToMint","type":"uint256","internalType":"uint256"}],"outputs":[],"stateMutability":"nonpayable"},{"type":"function","name":"reedemCollateral","inputs":[{"name":"tokenCollateralAddress","type":"address","internalType":"address"},{"name":"amountCollateral","type":"uint256","internalType":"uint256"}],"outputs":[],"stateMutability":"nonpayable"},{"type":"function","name":"reedemCollateralForDsc","inputs":[{"name":"tokenCollateralAddress","type":"address","internalType":"address"},{"name":"amountCollateral","type":"uint256","internalType":"uint256"},{"name":"amountDSCtoBurn","type":"uint256","internalType":"uint256"}],"outputs":[],"stateMutability":"nonpayable"},{"type":"event","name":"CollateralDeposited","inputs":[{"name":"user","type":"address","indexed":true,"internalType":"address"},{"name":"token","type":"address","indexed":true,"internalType":"address"},{"name":"amount","type":"uint256","indexed":true,"internalType":"uint256"}],"anonymous":false},{"type":"event","name":"CollateralRedeemed","inputs":[{"name":"redeemFrom","type":"address","indexed":true,"internalType":"address"},{"name":"redeemTo","type":"address","indexed":true,"internalType":"address"},{"name":"token","type":"address","indexed":false,"internalType":"address"},{"name":"amount","type":"uint256","indexed":false,"internalType":"uint256"}],"anonymous":false},{"type":"error","name":"DSCEngine__BreaksHealthFactor","inputs":[{"name":"userHealthfactor","type":"uint256","internalType":"uint256"}]},{"type":"error","name":"DSCEngine__HealthFactorNotImproved","inputs":[]},{"type":"error","name":"DSCEngine__HealthFactorOk","inputs":[]},{"type":"error","name":"DSCEngine__MintFailed","inputs":[]},{"type":"error","name":"DSCEngine__NeedsMoreThanZero","inputs":[]},{"type":"error","name":"DSCEngine__TokenAddressAndPriceFeedAddressMustBeSameLength","inputs":[]},{"type":"error","name":"DSCEngine__TokenNotAllowed","inputs":[]},{"type":"error","name":"DSCEngine__TransferFailed","inputs":[]},{"type":"error","name":"ReentrancyGuardReentrantCall","inputs":[]}],"bytecode":{"object":"0x60a060405234801561000f575f5ffd5b5060405161214e38038061214e833981810160405281019061003191906103af565b60015f819055508151835114610073576040517ff7fa022b00000000000000000000000000000000000000000000000000000000815260040160405180910390fd5b5f5f90505b83518110156101b75782818151811061009457610093610437565b5b602002602001015160015f8684815181106100b2576100b1610437565b5b602002602001015173ffffffffffffffffffffffffffffffffffffffff1673ffffffffffffffffffffffffffffffffffffffff1681526020019081526020015f205f6101000a81548173ffffffffffffffffffffffffffffffffffffffff021916908373ffffffffffffffffffffffffffffffffffffffff160217905550600484828151811061014557610144610437565b5b6020026020010151908060018154018082558091505060019003905f5260205f20015f9091909190916101000a81548173ffffffffffffffffffffffffffffffffffffffff021916908373ffffffffffffffffffffffffffffffffffffffff1602179055508080600101915050610078565b508073ffffffffffffffffffffffffffffffffffffffff1660808173ffffffffffffffffffffffffffffffffffffffff1681525050505050610464565b5f604051905090565b5f5ffd5b5f5ffd5b5f5ffd5b5f601f19601f8301169050919050565b7f4e487b71000000000000000000000000000000000000000000000000000000005f52604160045260245ffd5b61024f82610209565b810181811067ffffffffffffffff8211171561026e5761026d610219565b5b80604052505050565b5f6102806101f4565b905061028c8282610246565b919050565b5f67ffffffffffffffff8211156102ab576102aa610219565b5b602082029050602081019050919050565b5f5ffd5b5f73ffffffffffffffffffffffffffffffffffffffff82169050919050565b5f6102e9826102c0565b9050919050565b6102f9816102df565b8114610303575f5ffd5b50565b5f81519050610314816102f0565b92915050565b5f61032c61032784610291565b610277565b9050808382526020820190506020840283018581111561034f5761034e6102bc565b5b835b8181101561037857806103648882610306565b845260208401935050602081019050610351565b5050509392505050565b5f82601f83011261039657610395610205565b5b81516103a684826020860161031a565b91505092915050565b5f5f5f606084860312156103c6576103c56101fd565b5b5f84015167ffffffffffffffff8111156103e3576103e2610201565b5b6103ef86828701610382565b935050602084015167ffffffffffffffff8111156104105761040f610201565b5b61041c86828701610382565b925050604061042d86828701610306565b9150509250925092565b7f4e487b71000000000000000000000000000000000000000000000000000000005f52603260045260245ffd5b608051611cbd6104915f395f8181610f3f015281816110210152818161132501526113fb0152611cbd5ff3fe608060405234801561000f575f5ffd5b506004361061014b575f3560e01c80638f63d667116100c1578063c660d1121161007a578063c660d1121461038c578063c9b7c327146103bc578063deb8e018146103d8578063e90db8a3146103f6578063f687660814610412578063fe6bcd7c1461042e5761014b565b80638f63d667146102dc5780639670c0bc146102fa578063a5d5db0c14610318578063a5f352b714610334578063afea2e481461033e578063b58eb63f1461036e5761014b565b80636c8102c0116101135780636c8102c01461020757806377b2bd81146102255780637b510fe8146102415780637d1a4450146102725780638c1ae6c8146102a25780638df12407146102c05761014b565b80631c08adda1461014f57806326c013031461017f57806331e92b831461019b5780634ae9b8bc146101cb57806359aa9e72146101e9575b5f5ffd5b61016960048036038101906101649190611609565b61045e565b6040516101769190611643565b60405180910390f35b6101996004803603810190610194919061168f565b6104c3565b005b6101b560048036038101906101b091906116df565b6106b9565b6040516101c2919061172c565b60405180910390f35b6101d361073b565b6040516101e0919061172c565b60405180910390f35b6101f1610743565b6040516101fe919061172c565b60405180910390f35b61020f61074b565b60405161021c919061172c565b60405180910390f35b61023f600480360381019061023a9190611745565b610753565b005b61025b60048036038101906102569190611609565b61076b565b604051610269929190611795565b60405180910390f35b61028c60048036038101906102879190611609565b61077f565b604051610299919061172c565b60405180910390f35b6102aa610879565b6040516102b7919061172c565b60405180910390f35b6102da60048036038101906102d591906117bc565b610881565b005b6102e46108e5565b6040516102f1919061172c565b60405180910390f35b6103026108f1565b60405161030f919061172c565b60405180910390f35b610332600480360381019061032d91906117bc565b610900565b005b61033c610bb3565b005b610358600480360381019061035391906117bc565b610bb5565b604051610365919061172c565b60405180910390f35b610376610ce4565b60405161038391906118b1565b60405180910390f35b6103a660048036038101906103a191906117bc565b610d6f565b6040516103b3919061172c565b60405180910390f35b6103d660048036038101906103d191906118d1565b610e9e565b005b6103e061101e565b6040516103ed9190611643565b60405180910390f35b610410600480360381019061040b9190611745565b611045565b005b61042c600480360381019061042791906118d1565b61105d565b005b61044860048036038101906104439190611609565b6110a6565b604051610455919061172c565b60405180910390f35b5f60015f8373ffffffffffffffffffffffffffffffffffffffff1673ffffffffffffffffffffffffffffffffffffffff1681526020019081526020015f205f9054906101000a900473ffffffffffffffffffffffffffffffffffffffff169050919050565b825f73ffffffffffffffffffffffffffffffffffffffff1660015f8373ffffffffffffffffffffffffffffffffffffffff1673ffffffffffffffffffffffffffffffffffffffff1681526020019081526020015f205f9054906101000a900473ffffffffffffffffffffffffffffffffffffffff1673ffffffffffffffffffffffffffffffffffffffff1603610585576040517f03a1667100000000000000000000000000000000000000000000000000000000815260040160405180910390fd5b815f81036105bf576040517fcb1d3f7d00000000000000000000000000000000000000000000000000000000815260040160405180910390fd5b6105c76110b7565b5f6105d1856110fb565b90506001811061060d576040517f32c072f000000000000000000000000000000000000000000000000000000000815260040160405180910390fd5b5f6106188786610bb5565b90505f6064600a8361062a9190611929565b6106349190611997565b905061064d88828461064691906119c7565b893361111e565b6106588688336112cf565b5f610662886110fb565b905083811161069d576040517f7c28362000000000000000000000000000000000000000000000000000000000815260040160405180910390fd5b6106a633611485565b505050506106b26114db565b5050505050565b5f60025f8473ffffffffffffffffffffffffffffffffffffffff1673ffffffffffffffffffffffffffffffffffffffff1681526020019081526020015f205f8373ffffffffffffffffffffffffffffffffffffffff1673ffffffffffffffffffffffffffffffffffffffff1681526020019081526020015f2054905092915050565b5f6032905090565b5f600a905090565b5f6064905090565b61075c8161105d565b6107668383610881565b505050565b5f5f610776836114e4565b91509150915091565b5f5f5f90505b600480549050811015610873575f600482815481106107a7576107a66119fa565b5b905f5260205f20015f9054906101000a900473ffffffffffffffffffffffffffffffffffffffff1690505f60025f8673ffffffffffffffffffffffffffffffffffffffff1673ffffffffffffffffffffffffffffffffffffffff1681526020019081526020015f205f8373ffffffffffffffffffffffffffffffffffffffff1673ffffffffffffffffffffffffffffffffffffffff1681526020019081526020015f205490506108578282610d6f565b8461086291906119c7565b935050508080600101915050610785565b50919050565b5f6001905090565b805f81036108bb576040517fcb1d3f7d00000000000000000000000000000000000000000000000000000000815260040160405180910390fd5b6108c36110b7565b6108cf8383333361111e565b6108d833611485565b6108e06114db565b505050565b5f6402540be400905090565b5f670de0b6b3a7640000905090565b805f810361093a576040517fcb1d3f7d00000000000000000000000000000000000000000000000000000000815260040160405180910390fd5b825f73ffffffffffffffffffffffffffffffffffffffff1660015f8373ffffffffffffffffffffffffffffffffffffffff1673ffffffffffffffffffffffffffffffffffffffff1681526020019081526020015f205f9054906101000a900473ffffffffffffffffffffffffffffffffffffffff1673ffffffffffffffffffffffffffffffffffffffff16036109fc576040517f03a1667100000000000000000000000000000000000000000000000000000000815260040160405180910390fd5b610a046110b7565b8260025f3373ffffffffffffffffffffffffffffffffffffffff1673ffffffffffffffffffffffffffffffffffffffff1681526020019081526020015f205f8673ffffffffffffffffffffffffffffffffffffffff1673ffffffffffffffffffffffffffffffffffffffff1681526020019081526020015f205f828254610a8b91906119c7565b92505081905550828473ffffffffffffffffffffffffffffffffffffffff163373ffffffffffffffffffffffffffffffffffffffff167ff1c0dd7e9b98bbff859029005ef89b127af049cd18df1a8d79f0b7e019911e5660405160405180910390a45f8473ffffffffffffffffffffffffffffffffffffffff166323b872dd3330876040518463ffffffff1660e01b8152600401610b2b93929190611a27565b6020604051808303815f875af1158015610b47573d5f5f3e3d5ffd5b505050506040513d601f19601f82011682018060405250810190610b6b9190611a91565b905080610ba4576040517f4dc34d1700000000000000000000000000000000000000000000000000000000815260040160405180910390fd5b50610bad6114db565b50505050565b565b5f5f60015f8573ffffffffffffffffffffffffffffffffffffffff1673ffffffffffffffffffffffffffffffffffffffff1681526020019081526020015f205f9054906101000a900473ffffffffffffffffffffffffffffffffffffffff1690505f8173ffffffffffffffffffffffffffffffffffffffff1673__$1f06ac8d622ce42796cee98ba1044ce165$__6302651cb590916040518263ffffffff1660e01b8152600401610c669190611b17565b60a060405180830381865af4158015610c81573d5f5f3e3d5ffd5b505050506040513d601f19601f82011682018060405250810190610ca59190611bb6565b5050509150506402540be40081610cbc9190611929565b670de0b6b3a764000085610cd09190611929565b610cda9190611997565b9250505092915050565b60606004805480602002602001604051908101604052809291908181526020018280548015610d6557602002820191905f5260205f20905b815f9054906101000a900473ffffffffffffffffffffffffffffffffffffffff1673ffffffffffffffffffffffffffffffffffffffff1681526020019060010190808311610d1c575b5050505050905090565b5f5f60015f8573ffffffffffffffffffffffffffffffffffffffff1673ffffffffffffffffffffffffffffffffffffffff1681526020019081526020015f205f9054906101000a900473ffffffffffffffffffffffffffffffffffffffff1690505f8173ffffffffffffffffffffffffffffffffffffffff1673__$1f06ac8d622ce42796cee98ba1044ce165$__6302651cb590916040518263ffffffff1660e01b8152600401610e209190611b17565b60a060405180830381865af4158015610e3b573d5f5f3e3d5ffd5b505050506040513d601f19601f82011682018060405250810190610e5f9190611bb6565b505050915050670de0b6b3a7640000846402540be40083610e809190611929565b610e8a9190611929565b610e949190611997565b9250505092915050565b805f8103610ed8576040517fcb1d3f7d00000000000000000000000000000000000000000000000000000000815260040160405180910390fd5b610ee06110b7565b8160035f3373ffffffffffffffffffffffffffffffffffffffff1673ffffffffffffffffffffffffffffffffffffffff1681526020019081526020015f205f828254610f2c91906119c7565b92505081905550610f3c33611485565b5f7f000000000000000000000000000000000000000000000000000000000000000073ffffffffffffffffffffffffffffffffffffffff166340c10f1933856040518363ffffffff1660e01b8152600401610f98929190611c2d565b6020604051808303815f875af1158015610fb4573d5f5f3e3d5ffd5b505050506040513d601f19601f82011682018060405250810190610fd89190611a91565b905080611011576040517f30eb0fc900000000000000000000000000000000000000000000000000000000815260040160405180910390fd5b5061101a6114db565b5050565b5f7f0000000000000000000000000000000000000000000000000000000000000000905090565b61104f8383610900565b61105881610e9e565b505050565b805f8103611097576040517fcb1d3f7d00000000000000000000000000000000000000000000000000000000815260040160405180910390fd5b6110a28233336112cf565b5050565b5f6110b0826110fb565b9050919050565b60025f54036110f2576040517f3ee5aeb500000000000000000000000000000000000000000000000000000000815260040160405180910390fd5b60025f81905550565b5f5f5f611107846114e4565b915091506111158282611536565b92505050919050565b8260025f8473ffffffffffffffffffffffffffffffffffffffff1673ffffffffffffffffffffffffffffffffffffffff1681526020019081526020015f205f8673ffffffffffffffffffffffffffffffffffffffff1673ffffffffffffffffffffffffffffffffffffffff1681526020019081526020015f205f8282546111a59190611c54565b925050819055508073ffffffffffffffffffffffffffffffffffffffff168273ffffffffffffffffffffffffffffffffffffffff167fb292db12b8dfa23b760ee5e3bd1d3be184cd8f0eeeacd27ce120d4de4e4721f6868660405161120b929190611c2d565b60405180910390a35f8473ffffffffffffffffffffffffffffffffffffffff1663a9059cbb83866040518363ffffffff1660e01b815260040161124f929190611c2d565b6020604051808303815f875af115801561126b573d5f5f3e3d5ffd5b505050506040513d601f19601f8201168201806040525081019061128f9190611a91565b9050806112c8576040517f4dc34d1700000000000000000000000000000000000000000000000000000000815260040160405180910390fd5b5050505050565b8260035f8473ffffffffffffffffffffffffffffffffffffffff1673ffffffffffffffffffffffffffffffffffffffff1681526020019081526020015f205f82825461131b9190611c54565b925050819055505f7f000000000000000000000000000000000000000000000000000000000000000073ffffffffffffffffffffffffffffffffffffffff166323b872dd8330876040518463ffffffff1660e01b815260040161138093929190611a27565b6020604051808303815f875af115801561139c573d5f5f3e3d5ffd5b505050506040513d601f19601f820116820180604052508101906113c09190611a91565b9050806113f9576040517f4dc34d1700000000000000000000000000000000000000000000000000000000815260040160405180910390fd5b7f000000000000000000000000000000000000000000000000000000000000000073ffffffffffffffffffffffffffffffffffffffff166342966c68856040518263ffffffff1660e01b8152600401611452919061172c565b5f604051808303815f87803b158015611469575f5ffd5b505af115801561147b573d5f5f3e3d5ffd5b5050505050505050565b5f61148f826110fb565b905060018110156114d757806040517fe580cc610000000000000000000000000000000000000000000000000000000081526004016114ce919061172c565b60405180910390fd5b5050565b60015f81905550565b5f5f60035f8473ffffffffffffffffffffffffffffffffffffffff1673ffffffffffffffffffffffffffffffffffffffff1681526020019081526020015f2054915061152f8361077f565b9050915091565b5f5f8303611566577fffffffffffffffffffffffffffffffffffffffffffffffffffffffffffffffff90506115a5565b5f60646032846115769190611929565b6115809190611997565b905083670de0b6b3a7640000826115979190611929565b6115a19190611997565b9150505b92915050565b5f5ffd5b5f73ffffffffffffffffffffffffffffffffffffffff82169050919050565b5f6115d8826115af565b9050919050565b6115e8816115ce565b81146115f2575f5ffd5b50565b5f81359050611603816115df565b92915050565b5f6020828403121561161e5761161d6115ab565b5b5f61162b848285016115f5565b91505092915050565b61163d816115ce565b82525050565b5f6020820190506116565f830184611634565b92915050565b5f819050919050565b61166e8161165c565b8114611678575f5ffd5b50565b5f8135905061168981611665565b92915050565b5f5f5f606084860312156116a6576116a56115ab565b5b5f6116b3868287016115f5565b93505060206116c4868287016115f5565b92505060406116d58682870161167b565b9150509250925092565b5f5f604083850312156116f5576116f46115ab565b5b5f611702858286016115f5565b9250506020611713858286016115f5565b9150509250929050565b6117268161165c565b82525050565b5f60208201905061173f5f83018461171d565b92915050565b5f5f5f6060848603121561175c5761175b6115ab565b5b5f611769868287016115f5565b935050602061177a8682870161167b565b925050604061178b8682870161167b565b9150509250925092565b5f6040820190506117a85f83018561171d565b6117b5602083018461171d565b9392505050565b5f5f604083850312156117d2576117d16115ab565b5b5f6117df858286016115f5565b92505060206117f08582860161167b565b9150509250929050565b5f81519050919050565b5f82825260208201905092915050565b5f819050602082019050919050565b61182c816115ce565b82525050565b5f61183d8383611823565b60208301905092915050565b5f602082019050919050565b5f61185f826117fa565b6118698185611804565b935061187483611814565b805f5b838110156118a457815161188b8882611832565b975061189683611849565b925050600181019050611877565b5085935050505092915050565b5f6020820190508181035f8301526118c98184611855565b905092915050565b5f602082840312156118e6576118e56115ab565b5b5f6118f38482850161167b565b91505092915050565b7f4e487b71000000000000000000000000000000000000000000000000000000005f52601160045260245ffd5b5f6119338261165c565b915061193e8361165c565b925082820261194c8161165c565b91508282048414831517611963576119626118fc565b5b5092915050565b7f4e487b71000000000000000000000000000000000000000000000000000000005f52601260045260245ffd5b5f6119a18261165c565b91506119ac8361165c565b9250826119bc576119bb61196a565b5b828204905092915050565b5f6119d18261165c565b91506119dc8361165c565b92508282019050808211156119f4576119f36118fc565b5b92915050565b7f4e487b71000000000000000000000000000000000000000000000000000000005f52603260045260245ffd5b5f606082019050611a3a5f830186611634565b611a476020830185611634565b611a54604083018461171d565b949350505050565b5f8115159050919050565b611a7081611a5c565b8114611a7a575f5ffd5b50565b5f81519050611a8b81611a67565b92915050565b5f60208284031215611aa657611aa56115ab565b5b5f611ab384828501611a7d565b91505092915050565b5f819050919050565b5f611adf611ada611ad5846115af565b611abc565b6115af565b9050919050565b5f611af082611ac5565b9050919050565b5f611b0182611ae6565b9050919050565b611b1181611af7565b82525050565b5f602082019050611b2a5f830184611b08565b92915050565b5f69ffffffffffffffffffff82169050919050565b611b4e81611b30565b8114611b58575f5ffd5b50565b5f81519050611b6981611b45565b92915050565b5f819050919050565b611b8181611b6f565b8114611b8b575f5ffd5b50565b5f81519050611b9c81611b78565b92915050565b5f81519050611bb081611665565b92915050565b5f5f5f5f5f60a08688031215611bcf57611bce6115ab565b5b5f611bdc88828901611b5b565b9550506020611bed88828901611b8e565b9450506040611bfe88828901611ba2565b9350506060611c0f88828901611ba2565b9250506080611c2088828901611b5b565b9150509295509295909350565b5f604082019050611c405f830185611634565b611c4d602083018461171d565b9392505050565b5f611c5e8261165c565b9150611c698361165c565b9250828203905081811115611c8157611c806118fc565b5b9291505056fea26469706673582212208e67e7ff38832875f6961dcfec4ec8a6dde11c41ad8dfc3b68315199adf7a84264736f6c634300081c0033","linkReferences":{"src/libraries/OracleLib.sol":{"OracleLib":[{"start":4289,"length":20},{"start":4731,"length":20}]}}},"methodIdentifiers":{"burnDsc(uint256)":"f6876608","depositCollateral(address,uint256)":"a5d5db0c","depositCollateralAndMintDsc(address,uint256,uint256)":"e90db8a3","getAccountCollateralValue(address)":"7d1a4450","getAccountInfo(address)":"7b510fe8","getAdditionalFeedPrecision()":"8f63d667","getCollateralBalanceOfUser(address,address)":"31e92b83","getCollateralTokenPriceFeed(address)":"1c08adda","getCollateralTokens()":"b58eb63f","getDsc()":"deb8e018","getHealthFactor()":"a5f352b7","getHealthFactor(address)":"fe6bcd7c","getLiquidationBonus()":"59aa9e72","getLiquidationPrecision()":"6c8102c0","getLiquidationThreshold()":"4ae9b8bc","getMinHealthFactor()":"8c1ae6c8","getPrecision()":"9670c0bc","getTokenAmountFromUsd(address,uint256)":"afea2e48","getUsdValue(address,uint256)":"c660d112","liquidate(address,address,uint256)":"26c01303","mintDsc(uint256)":"c9b7c327","reedemCollateral(address,uint256)":"8df12407","reedemCollateralForDsc(address,uint256,uint256)":"77b2bd81"},"id":32}